{
  "_format": "hh-sol-artifact-1",
  "contractName": "ScalarMarketVault",
  "sourceName": "contracts/ScalarMarketVault.sol",
  "abi": [
    {
      "inputs": [
        {
          "internalType": "address",
          "name": "_factory",
          "type": "address"
        }
      ],
      "stateMutability": "nonpayable",
      "type": "constructor"
    },
    {
      "anonymous": false,
      "inputs": [
        {
          "indexed": false,
          "internalType": "address",
          "name": "sender",
          "type": "address"
        },
        {
          "indexed": false,
          "internalType": "uint256",
          "name": "amountLIn",
          "type": "uint256"
        },
        {
          "indexed": false,
          "internalType": "uint256",
          "name": "amountRIn",
          "type": "uint256"
        },
        {
          "indexed": false,
          "internalType": "uint256",
          "name": "amountOut",
          "type": "uint256"
        }
      ],
      "name": "FinalRedeem",
      "type": "event"
    },
    {
      "anonymous": false,
      "inputs": [
        {
          "indexed": false,
          "internalType": "uint256",
          "name": "fValue",
          "type": "uint256"
        },
        {
          "indexed": false,
          "internalType": "bool",
          "name": "isFinalValueSet",
          "type": "bool"
        },
        {
          "indexed": false,
          "internalType": "uint256",
          "name": "longPrice",
          "type": "uint256"
        }
      ],
      "name": "FinalValueSet",
      "type": "event"
    },
    {
      "anonymous": false,
      "inputs": [
        {
          "indexed": false,
          "internalType": "address",
          "name": "recipient",
          "type": "address"
        },
        {
          "indexed": false,
          "internalType": "uint256",
          "name": "amountIn",
          "type": "uint256"
        },
        {
          "indexed": false,
          "internalType": "uint256",
          "name": "amountOut",
          "type": "uint256"
        }
      ],
      "name": "MintLongShort",
      "type": "event"
    },
    {
      "anonymous": false,
      "inputs": [
        {
          "indexed": false,
          "internalType": "address",
          "name": "sender",
          "type": "address"
        },
        {
          "indexed": false,
          "internalType": "uint256",
          "name": "amount",
          "type": "uint256"
        }
      ],
      "name": "Redeem",
      "type": "event"
    },
    {
      "inputs": [],
      "name": "creator",
      "outputs": [
        {
          "internalType": "address",
          "name": "",
          "type": "address"
        }
      ],
      "stateMutability": "view",
      "type": "function"
    },
    {
      "inputs": [],
      "name": "endRange",
      "outputs": [
        {
          "internalType": "uint256",
          "name": "",
          "type": "uint256"
        }
      ],
      "stateMutability": "view",
      "type": "function"
    },
    {
      "inputs": [],
      "name": "fValue",
      "outputs": [
        {
          "internalType": "uint256",
          "name": "",
          "type": "uint256"
        }
      ],
      "stateMutability": "view",
      "type": "function"
    },
    {
      "inputs": [],
      "name": "factory",
      "outputs": [
        {
          "internalType": "address",
          "name": "",
          "type": "address"
        }
      ],
      "stateMutability": "view",
      "type": "function"
    },
    {
      "inputs": [
        {
          "internalType": "uint256",
          "name": "amountLIn",
          "type": "uint256"
        },
        {
          "internalType": "uint256",
          "name": "amountSIn",
          "type": "uint256"
        }
      ],
      "name": "finalRedeem",
      "outputs": [],
      "stateMutability": "nonpayable",
      "type": "function"
    },
    {
      "inputs": [
        {
          "internalType": "address",
          "name": "_longToken",
          "type": "address"
        },
        {
          "internalType": "address",
          "name": "_shortToken",
          "type": "address"
        },
        {
          "internalType": "uint256",
          "name": "_startRange",
          "type": "uint256"
        },
        {
          "internalType": "uint256",
          "name": "_endRange",
          "type": "uint256"
        },
        {
          "internalType": "address",
          "name": "_creator",
          "type": "address"
        }
      ],
      "name": "initialize",
      "outputs": [],
      "stateMutability": "nonpayable",
      "type": "function"
    },
    {
      "inputs": [],
      "name": "isFinalValueSet",
      "outputs": [
        {
          "internalType": "bool",
          "name": "",
          "type": "bool"
        }
      ],
      "stateMutability": "view",
      "type": "function"
    },
    {
      "inputs": [],
      "name": "isInitialized",
      "outputs": [
        {
          "internalType": "bool",
          "name": "",
          "type": "bool"
        }
      ],
      "stateMutability": "view",
      "type": "function"
    },
    {
      "inputs": [],
      "name": "longPrice",
      "outputs": [
        {
          "internalType": "uint256",
          "name": "",
          "type": "uint256"
        }
      ],
      "stateMutability": "view",
      "type": "function"
    },
    {
      "inputs": [],
      "name": "longToken",
      "outputs": [
        {
          "internalType": "contract IERC20EXT",
          "name": "",
          "type": "address"
        }
      ],
      "stateMutability": "view",
      "type": "function"
    },
    {
      "inputs": [],
      "name": "minimumDeposit",
      "outputs": [
        {
          "internalType": "uint256",
          "name": "",
          "type": "uint256"
        }
      ],
      "stateMutability": "view",
      "type": "function"
    },
    {
      "inputs": [
        {
          "internalType": "address",
          "name": "recipient",
          "type": "address"
        }
      ],
      "name": "mintLongShort",
      "outputs": [],
      "stateMutability": "payable",
      "type": "function"
    },
    {
      "inputs": [],
      "name": "rangeAccuracy",
      "outputs": [
        {
          "internalType": "uint256",
          "name": "",
          "type": "uint256"
        }
      ],
      "stateMutability": "view",
      "type": "function"
    },
    {
      "inputs": [
        {
          "internalType": "uint256",
          "name": "amount",
          "type": "uint256"
        }
      ],
      "name": "redeem",
      "outputs": [],
      "stateMutability": "nonpayable",
      "type": "function"
    },
    {
      "inputs": [
        {
          "internalType": "uint256",
          "name": "_fValue",
          "type": "uint256"
        }
      ],
      "name": "setFinalValue",
      "outputs": [],
      "stateMutability": "nonpayable",
      "type": "function"
    },
    {
      "inputs": [],
      "name": "shortToken",
      "outputs": [
        {
          "internalType": "contract IERC20EXT",
          "name": "",
          "type": "address"
        }
      ],
      "stateMutability": "view",
      "type": "function"
    },
    {
      "inputs": [],
      "name": "startRange",
      "outputs": [
        {
          "internalType": "uint256",
          "name": "",
          "type": "uint256"
        }
      ],
      "stateMutability": "view",
      "type": "function"
    },
    {
      "inputs": [],
      "name": "tokenBase",
      "outputs": [
        {
          "internalType": "uint256",
          "name": "",
          "type": "uint256"
        }
      ],
      "stateMutability": "view",
      "type": "function"
    }
  ],
  "bytecode": "0x61010060405266038d7ea4c68000608052670de0b6b3a764000060a081905260c0523480156200002e57600080fd5b5060405162001c2238038062001c2283398101604081905262000051916200009d565b6001600160a01b031660e052620000ca565b60006001600160a01b0382165b92915050565b620000818162000063565b81146200008d57600080fd5b50565b8051620000708162000076565b600060208284031215620000b457620000b4600080fd5b6000620000c2848462000090565b949350505050565b60805160a05160c05160e051611ad86200014a6000396000818161037901526108c701526000818161020701528181610a0e01528181610a33015261139c0152600081816102f50152818161073401528181610ddf0152610f3601526000818161026e015281816105c80152818161064701526106750152611ad86000f3fe6080604052600436106101295760003560e01c80637a9742f3116100a5578063c45a015511610074578063e3065da711610059578063e3065da7146103bb578063f5eda60e146103e8578063f729e4a0146103fe57600080fd5b8063c45a015514610367578063db006a751461039b57600080fd5b80637a9742f3146102c3578063b61daaee146102e3578063b66333cd14610317578063c04b60ab1461035157600080fd5b806357911306116100fc57806357fb25cc116100e157806357fb25cc1461023c578063636bfbab1461025c5780637a88f5cc1461029057600080fd5b806357911306146101f5578063579ea0a71461022957600080fd5b806302d05d3f1461012e5780631a4a283914610171578063392e53cd1461019457806355577e23146101d3575b600080fd5b34801561013a57600080fd5b5060065461015b9073ffffffffffffffffffffffffffffffffffffffff1681565b6040516101689190611413565b60405180910390f35b34801561017d57600080fd5b5061018760045481565b6040516101689190611427565b3480156101a057600080fd5b506006546101c69074010000000000000000000000000000000000000000900460ff1681565b604051610168919061143d565b3480156101df57600080fd5b506101f36101ee366004611466565b610414565b005b34801561020157600080fd5b506101877f000000000000000000000000000000000000000000000000000000000000000081565b6101f36102373660046114a3565b61058a565b34801561024857600080fd5b506101f36102573660046114c4565b6108af565b34801561026857600080fd5b506101877f000000000000000000000000000000000000000000000000000000000000000081565b34801561029c57600080fd5b506006546101c6907501000000000000000000000000000000000000000000900460ff1681565b3480156102cf57600080fd5b506101f36102de36600461153c565b6109cf565b3480156102ef57600080fd5b506101877f000000000000000000000000000000000000000000000000000000000000000081565b34801561032357600080fd5b506000546103449073ffffffffffffffffffffffffffffffffffffffff1681565b60405161016891906115b6565b34801561035d57600080fd5b5061018760035481565b34801561037357600080fd5b5061015b7f000000000000000000000000000000000000000000000000000000000000000081565b3480156103a757600080fd5b506101f36103b6366004611466565b610ef8565b3480156103c757600080fd5b506001546103449073ffffffffffffffffffffffffffffffffffffffff1681565b3480156103f457600080fd5b5061018760025481565b34801561040a57600080fd5b5061018760055481565b60065473ffffffffffffffffffffffffffffffffffffffff1633146104545760405162461bcd60e51b815260040161044b906115fb565b60405180910390fd5b60065474010000000000000000000000000000000000000000900460ff1661048e5760405162461bcd60e51b815260040161044b9061163f565b6006547501000000000000000000000000000000000000000000900460ff16156104ca5760405162461bcd60e51b815260040161044b90611681565b60025481116104de576002546004556104f8565b60035481106104f2576003546004556104f8565b60048190555b61050061138a565b600680547fffffffffffffffffffff00ffffffffffffffffffffffffffffffffffffffffff167501000000000000000000000000000000000000000000908117918290556004546005546040517fdaefd721d22c9ea7080141bbb4581ada052fc6a3fee18949fda8811c1b1214f19461057f94900460ff169190611691565b60405180910390a150565b6006547501000000000000000000000000000000000000000000900460ff16156105c65760405162461bcd60e51b815260040161044b906116ed565b7f00000000000000000000000000000000000000000000000000000000000000003410156106065760405162461bcd60e51b815260040161044b90611731565b60065474010000000000000000000000000000000000000000900460ff166106405760405162461bcd60e51b815260040161044b9061163f565b600061066c7f00000000000000000000000000000000000000000000000000000000000000003461179f565b9050600061069a7f0000000000000000000000000000000000000000000000000000000000000000346117b3565b9050801561072d5760003373ffffffffffffffffffffffffffffffffffffffff16826040516106c8906117c7565b60006040518083038185875af1925050503d8060008114610705576040519150601f19603f3d011682016040523d82523d6000602084013e61070a565b606091505b505090508061072b5760405162461bcd60e51b815260040161044b90611803565b505b60006107597f000000000000000000000000000000000000000000000000000000000000000084611813565b6000546040517f40c10f1900000000000000000000000000000000000000000000000000000000815291925073ffffffffffffffffffffffffffffffffffffffff16906340c10f19906107b29087908590600401611832565b600060405180830381600087803b1580156107cc57600080fd5b505af11580156107e0573d6000803e3d6000fd5b50506001546040517f40c10f1900000000000000000000000000000000000000000000000000000000815273ffffffffffffffffffffffffffffffffffffffff90911692506340c10f19915061083c9087908590600401611832565b600060405180830381600087803b15801561085657600080fd5b505af115801561086a573d6000803e3d6000fd5b505050507fb46b582f8e00bf2c9c939da861379491d127251345a9c9ec2b4133c93c5b526f8434836040516108a193929190611854565b60405180910390a150505050565b3373ffffffffffffffffffffffffffffffffffffffff7f000000000000000000000000000000000000000000000000000000000000000016146109045760405162461bcd60e51b815260040161044b906118a3565b600080547fffffffffffffffffffffffff000000000000000000000000000000000000000090811673ffffffffffffffffffffffffffffffffffffffff9788161790915560018054909116948616949094179093556002919091556003556006805474010000000000000000000000000000000000000000929093167fffffffffffffffffffffff00000000000000000000000000000000000000000090931692909217177fffffffffffffffffffff00ffffffffffffffffffffffffffffffffffffffffff169055565b6006547501000000000000000000000000000000000000000000900460ff16610a0a5760405162461bcd60e51b815260040161044b906118e7565b60007f0000000000000000000000000000000000000000000000000000000000000000826005547f0000000000000000000000000000000000000000000000000000000000000000610a5c91906118f7565b610a669190611813565b84600554610a749190611813565b610a7e919061190a565b610a88919061179f565b6000546040517f23b872dd00000000000000000000000000000000000000000000000000000000815291925073ffffffffffffffffffffffffffffffffffffffff16906323b872dd90610ae39033903090889060040161191d565b6020604051808303816000875af1158015610b02573d6000803e3d6000fd5b505050506040513d601f19601f82011682018060405250810190610b26919061194b565b610b425760405162461bcd60e51b815260040161044b906119a0565b6001546040517f23b872dd00000000000000000000000000000000000000000000000000000000815273ffffffffffffffffffffffffffffffffffffffff909116906323b872dd90610b9c9033903090879060040161191d565b6020604051808303816000875af1158015610bbb573d6000803e3d6000fd5b505050506040513d601f19601f82011682018060405250810190610bdf919061194b565b610bfb5760405162461bcd60e51b815260040161044b906119e4565b6000546040517f70a0823100000000000000000000000000000000000000000000000000000000815273ffffffffffffffffffffffffffffffffffffffff90911690639dc29fac90309083906370a0823190610c5b908490600401611413565b602060405180830381865afa158015610c78573d6000803e3d6000fd5b505050506040513d601f19601f82011682018060405250810190610c9c91906119ff565b6040518363ffffffff1660e01b8152600401610cb9929190611832565b600060405180830381600087803b158015610cd357600080fd5b505af1158015610ce7573d6000803e3d6000fd5b50506001546040517f70a0823100000000000000000000000000000000000000000000000000000000815273ffffffffffffffffffffffffffffffffffffffff9091169250639dc29fac9150309083906370a0823190610d4b908490600401611413565b602060405180830381865afa158015610d68573d6000803e3d6000fd5b505050506040513d601f19601f82011682018060405250810190610d8c91906119ff565b6040518363ffffffff1660e01b8152600401610da9929190611832565b600060405180830381600087803b158015610dc357600080fd5b505af1158015610dd7573d6000803e3d6000fd5b5050505060007f00000000000000000000000000000000000000000000000000000000000000008266038d7ea4c68000610e119190611813565b610e1b919061179f565b905060003373ffffffffffffffffffffffffffffffffffffffff1682604051610e43906117c7565b60006040518083038185875af1925050503d8060008114610e80576040519150601f19603f3d011682016040523d82523d6000602084013e610e85565b606091505b5050905080610ea65760405162461bcd60e51b815260040161044b90611a54565b7f99cb122f029a754d6e83388e2a19f0d8d1045aa12ea1432f623f9aafd6919ffc338686610ed964e8d4a510008861179f565b604051610ee99493929190611a64565b60405180910390a15050505050565b60065474010000000000000000000000000000000000000000900460ff16610f325760405162461bcd60e51b815260040161044b9061163f565b60007f0000000000000000000000000000000000000000000000000000000000000000610f668366038d7ea4c68000611813565b610f70919061179f565b6000546040517f23b872dd00000000000000000000000000000000000000000000000000000000815291925073ffffffffffffffffffffffffffffffffffffffff16906323b872dd90610fcb9033903090879060040161191d565b6020604051808303816000875af1158015610fea573d6000803e3d6000fd5b505050506040513d601f19601f8201168201806040525081019061100e919061194b565b61102a5760405162461bcd60e51b815260040161044b906119a0565b6001546040517f23b872dd00000000000000000000000000000000000000000000000000000000815273ffffffffffffffffffffffffffffffffffffffff909116906323b872dd906110849033903090879060040161191d565b6020604051808303816000875af11580156110a3573d6000803e3d6000fd5b505050506040513d601f19601f820116820180604052508101906110c7919061194b565b6110e35760405162461bcd60e51b815260040161044b906119e4565b6000546040517f70a0823100000000000000000000000000000000000000000000000000000000815273ffffffffffffffffffffffffffffffffffffffff90911690639dc29fac90309083906370a0823190611143908490600401611413565b602060405180830381865afa158015611160573d6000803e3d6000fd5b505050506040513d601f19601f8201168201806040525081019061118491906119ff565b6040518363ffffffff1660e01b81526004016111a1929190611832565b600060405180830381600087803b1580156111bb57600080fd5b505af11580156111cf573d6000803e3d6000fd5b50506001546040517f70a0823100000000000000000000000000000000000000000000000000000000815273ffffffffffffffffffffffffffffffffffffffff9091169250639dc29fac9150309083906370a0823190611233908490600401611413565b602060405180830381865afa158015611250573d6000803e3d6000fd5b505050506040513d601f19601f8201168201806040525081019061127491906119ff565b6040518363ffffffff1660e01b8152600401611291929190611832565b600060405180830381600087803b1580156112ab57600080fd5b505af11580156112bf573d6000803e3d6000fd5b5050505060003373ffffffffffffffffffffffffffffffffffffffff16826040516112e9906117c7565b60006040518083038185875af1925050503d8060008114611326576040519150601f19603f3d011682016040523d82523d6000602084013e61132b565b606091505b505090508061134c5760405162461bcd60e51b815260040161044b90611a54565b7f222838db2794d11532d940e8dec38ae307ed0b63cd97c233322e221f998767a6338460405161137d929190611832565b60405180910390a1505050565b60025460035461139a91906118f7565b7f00000000000000000000000000000000000000000000000000000000000000006002546004546113cb91906118f7565b6113d59190611813565b6113df919061179f565b600555565b600073ffffffffffffffffffffffffffffffffffffffff82165b92915050565b61140d816113e4565b82525050565b602081016113fe8284611404565b8061140d565b602081016113fe8284611421565b80151561140d565b602081016113fe8284611435565b805b811461145857600080fd5b50565b80356113fe8161144b565b60006020828403121561147b5761147b600080fd5b6000611487848461145b565b949350505050565b61144d816113e4565b80356113fe8161148f565b6000602082840312156114b8576114b8600080fd5b60006114878484611498565b600080600080600060a086880312156114df576114df600080fd5b60006114eb8888611498565b95505060206114fc88828901611498565b945050604061150d8882890161145b565b935050606061151e8882890161145b565b925050608061152f88828901611498565b9150509295509295909350565b6000806040838503121561155257611552600080fd5b600061155e858561145b565b925050602061156f8582860161145b565b9150509250929050565b600073ffffffffffffffffffffffffffffffffffffffff82166113fe565b60006113fe82611579565b60006113fe82611597565b61140d816115a2565b602081016113fe82846115ad565b600c81526000602082017f6f6e6c792063726561746f720000000000000000000000000000000000000000815291505b5060200190565b602080825281016113fe816115c4565b601881526000602082017f486173206e6f74206265656e20696e697469616c697a65640000000000000000815291506115f4565b602080825281016113fe8161160b565b60208082527f46696e616c2056616c75652068617320616c7265616479206265656e20736574910190815260006115f4565b602080825281016113fe8161164f565b6060810161169f8286611421565b6116ac6020830185611435565b6114876040830184611421565b601881526000602082017f46696e616c2056616c756520686173206265656e207365740000000000000000815291506115f4565b602080825281016113fe816116b9565b601881526000602082017f4d696e696d756d20302e30303120455448206e65656465640000000000000000815291506115f4565b602080825281016113fe816116fd565b7f4e487b7100000000000000000000000000000000000000000000000000000000600052601260045260246000fd5b7f4e487b7100000000000000000000000000000000000000000000000000000000600052601160045260246000fd5b6000826117ae576117ae611741565b500490565b6000826117c2576117c2611741565b500690565b6000816113fe565b600d81526000602082017f526566756e64206661696c656400000000000000000000000000000000000000815291506115f4565b602080825281016113fe816117cf565b81810280821583820485141761182b5761182b611770565b5092915050565b604081016118408285611404565b61184d6020830184611421565b9392505050565b606081016118628286611404565b6116ac6020830185611421565b600c81526000602082017f6f6e6c7920666163746f72790000000000000000000000000000000000000000815291506115f4565b602080825281016113fe8161186f565b601c81526000602082017f46696e616c2056616c756520686173206e6f74206265656e2073657400000000815291506115f4565b602080825281016113fe816118b3565b818103818111156113fe576113fe611770565b808201808211156113fe576113fe611770565b6060810161192b8286611404565b6116ac6020830185611404565b80151561144d565b80516113fe81611938565b60006020828403121561196057611960600080fd5b60006114878484611940565b601e81526000602082017f4661696c656420746f207472616e73666572204c6f6e6720546f6b656e730000815291506115f4565b602080825281016113fe8161196c565b601f81526000602082017f4661696c656420746f207472616e736665722053686f727420546f6b656e7300815291506115f4565b602080825281016113fe816119b0565b80516113fe8161144b565b600060208284031215611a1457611a14600080fd5b600061148784846119f4565b601481526000602082017f4661696c656420746f2073656e64204574686572000000000000000000000000815291506115f4565b602080825281016113fe81611a20565b60808101611a728287611404565b611a7f6020830186611421565b611a8c6040830185611421565b611a996060830184611421565b9594505050505056fea2646970667358221220a91dfd22df63fad2ebaf48d58d4e9a1e202ded78964187416211ec1a645627b964736f6c63430008140033",
  "linkReferences": {},
  "deployedLinkReferences": {}
}