{
  "_format": "hh-sol-artifact-1",
  "contractName": "LongToken",
  "sourceName": "contracts/LongToken.sol",
  "abi": [
    {
      "inputs": [
        {
          "internalType": "address",
          "name": "_factory",
          "type": "address"
        }
      ],
      "stateMutability": "nonpayable",
      "type": "constructor"
    },
    {
      "inputs": [
        {
          "internalType": "address",
          "name": "spender",
          "type": "address"
        },
        {
          "internalType": "uint256",
          "name": "allowance",
          "type": "uint256"
        },
        {
          "internalType": "uint256",
          "name": "needed",
          "type": "uint256"
        }
      ],
      "name": "ERC20InsufficientAllowance",
      "type": "error"
    },
    {
      "inputs": [
        {
          "internalType": "address",
          "name": "sender",
          "type": "address"
        },
        {
          "internalType": "uint256",
          "name": "balance",
          "type": "uint256"
        },
        {
          "internalType": "uint256",
          "name": "needed",
          "type": "uint256"
        }
      ],
      "name": "ERC20InsufficientBalance",
      "type": "error"
    },
    {
      "inputs": [
        {
          "internalType": "address",
          "name": "approver",
          "type": "address"
        }
      ],
      "name": "ERC20InvalidApprover",
      "type": "error"
    },
    {
      "inputs": [
        {
          "internalType": "address",
          "name": "receiver",
          "type": "address"
        }
      ],
      "name": "ERC20InvalidReceiver",
      "type": "error"
    },
    {
      "inputs": [
        {
          "internalType": "address",
          "name": "sender",
          "type": "address"
        }
      ],
      "name": "ERC20InvalidSender",
      "type": "error"
    },
    {
      "inputs": [
        {
          "internalType": "address",
          "name": "spender",
          "type": "address"
        }
      ],
      "name": "ERC20InvalidSpender",
      "type": "error"
    },
    {
      "inputs": [
        {
          "internalType": "address",
          "name": "owner",
          "type": "address"
        }
      ],
      "name": "OwnableInvalidOwner",
      "type": "error"
    },
    {
      "inputs": [
        {
          "internalType": "address",
          "name": "account",
          "type": "address"
        }
      ],
      "name": "OwnableUnauthorizedAccount",
      "type": "error"
    },
    {
      "anonymous": false,
      "inputs": [
        {
          "indexed": true,
          "internalType": "address",
          "name": "owner",
          "type": "address"
        },
        {
          "indexed": true,
          "internalType": "address",
          "name": "spender",
          "type": "address"
        },
        {
          "indexed": false,
          "internalType": "uint256",
          "name": "value",
          "type": "uint256"
        }
      ],
      "name": "Approval",
      "type": "event"
    },
    {
      "anonymous": false,
      "inputs": [
        {
          "indexed": true,
          "internalType": "address",
          "name": "previousOwner",
          "type": "address"
        },
        {
          "indexed": true,
          "internalType": "address",
          "name": "newOwner",
          "type": "address"
        }
      ],
      "name": "OwnershipTransferred",
      "type": "event"
    },
    {
      "anonymous": false,
      "inputs": [
        {
          "indexed": true,
          "internalType": "address",
          "name": "from",
          "type": "address"
        },
        {
          "indexed": true,
          "internalType": "address",
          "name": "to",
          "type": "address"
        },
        {
          "indexed": false,
          "internalType": "uint256",
          "name": "value",
          "type": "uint256"
        }
      ],
      "name": "Transfer",
      "type": "event"
    },
    {
      "inputs": [
        {
          "internalType": "address",
          "name": "owner",
          "type": "address"
        },
        {
          "internalType": "address",
          "name": "spender",
          "type": "address"
        }
      ],
      "name": "allowance",
      "outputs": [
        {
          "internalType": "uint256",
          "name": "",
          "type": "uint256"
        }
      ],
      "stateMutability": "view",
      "type": "function"
    },
    {
      "inputs": [
        {
          "internalType": "address",
          "name": "spender",
          "type": "address"
        },
        {
          "internalType": "uint256",
          "name": "value",
          "type": "uint256"
        }
      ],
      "name": "approve",
      "outputs": [
        {
          "internalType": "bool",
          "name": "",
          "type": "bool"
        }
      ],
      "stateMutability": "nonpayable",
      "type": "function"
    },
    {
      "inputs": [
        {
          "internalType": "address",
          "name": "account",
          "type": "address"
        }
      ],
      "name": "balanceOf",
      "outputs": [
        {
          "internalType": "uint256",
          "name": "",
          "type": "uint256"
        }
      ],
      "stateMutability": "view",
      "type": "function"
    },
    {
      "inputs": [
        {
          "internalType": "uint256",
          "name": "value",
          "type": "uint256"
        }
      ],
      "name": "burn",
      "outputs": [],
      "stateMutability": "nonpayable",
      "type": "function"
    },
    {
      "inputs": [
        {
          "internalType": "address",
          "name": "from",
          "type": "address"
        },
        {
          "internalType": "uint256",
          "name": "amount",
          "type": "uint256"
        }
      ],
      "name": "burn",
      "outputs": [],
      "stateMutability": "nonpayable",
      "type": "function"
    },
    {
      "inputs": [
        {
          "internalType": "address",
          "name": "account",
          "type": "address"
        },
        {
          "internalType": "uint256",
          "name": "value",
          "type": "uint256"
        }
      ],
      "name": "burnFrom",
      "outputs": [],
      "stateMutability": "nonpayable",
      "type": "function"
    },
    {
      "inputs": [],
      "name": "decimals",
      "outputs": [
        {
          "internalType": "uint8",
          "name": "",
          "type": "uint8"
        }
      ],
      "stateMutability": "view",
      "type": "function"
    },
    {
      "inputs": [],
      "name": "factory",
      "outputs": [
        {
          "internalType": "address",
          "name": "",
          "type": "address"
        }
      ],
      "stateMutability": "view",
      "type": "function"
    },
    {
      "inputs": [
        {
          "internalType": "address",
          "name": "to",
          "type": "address"
        },
        {
          "internalType": "uint256",
          "name": "amount",
          "type": "uint256"
        }
      ],
      "name": "mint",
      "outputs": [],
      "stateMutability": "nonpayable",
      "type": "function"
    },
    {
      "inputs": [],
      "name": "name",
      "outputs": [
        {
          "internalType": "string",
          "name": "",
          "type": "string"
        }
      ],
      "stateMutability": "view",
      "type": "function"
    },
    {
      "inputs": [],
      "name": "owner",
      "outputs": [
        {
          "internalType": "address",
          "name": "",
          "type": "address"
        }
      ],
      "stateMutability": "view",
      "type": "function"
    },
    {
      "inputs": [],
      "name": "renounceOwnership",
      "outputs": [],
      "stateMutability": "nonpayable",
      "type": "function"
    },
    {
      "inputs": [
        {
          "internalType": "address",
          "name": "_vault",
          "type": "address"
        }
      ],
      "name": "setVault",
      "outputs": [],
      "stateMutability": "nonpayable",
      "type": "function"
    },
    {
      "inputs": [],
      "name": "symbol",
      "outputs": [
        {
          "internalType": "string",
          "name": "",
          "type": "string"
        }
      ],
      "stateMutability": "view",
      "type": "function"
    },
    {
      "inputs": [],
      "name": "totalSupply",
      "outputs": [
        {
          "internalType": "uint256",
          "name": "",
          "type": "uint256"
        }
      ],
      "stateMutability": "view",
      "type": "function"
    },
    {
      "inputs": [
        {
          "internalType": "address",
          "name": "to",
          "type": "address"
        },
        {
          "internalType": "uint256",
          "name": "value",
          "type": "uint256"
        }
      ],
      "name": "transfer",
      "outputs": [
        {
          "internalType": "bool",
          "name": "",
          "type": "bool"
        }
      ],
      "stateMutability": "nonpayable",
      "type": "function"
    },
    {
      "inputs": [
        {
          "internalType": "address",
          "name": "from",
          "type": "address"
        },
        {
          "internalType": "address",
          "name": "to",
          "type": "address"
        },
        {
          "internalType": "uint256",
          "name": "value",
          "type": "uint256"
        }
      ],
      "name": "transferFrom",
      "outputs": [
        {
          "internalType": "bool",
          "name": "",
          "type": "bool"
        }
      ],
      "stateMutability": "nonpayable",
      "type": "function"
    },
    {
      "inputs": [
        {
          "internalType": "address",
          "name": "newOwner",
          "type": "address"
        }
      ],
      "name": "transferOwnership",
      "outputs": [],
      "stateMutability": "nonpayable",
      "type": "function"
    },
    {
      "inputs": [],
      "name": "vault",
      "outputs": [
        {
          "internalType": "address",
          "name": "",
          "type": "address"
        }
      ],
      "stateMutability": "view",
      "type": "function"
    }
  ],
  "bytecode": "0x60a06040523480156200001157600080fd5b506040516200120938038062001209833981016040819052620000349162000177565b336040518060400160405280600a8152602001692637b733902a37b5b2b760b11b815250604051806040016040528060038152602001624c4e4760e81b8152508160039081620000859190620002b2565b506004620000948282620002b2565b5050506001600160a01b038116620000cd576000604051631e4fbdf760e01b8152600401620000c4919062000393565b60405180910390fd5b620000d881620000eb565b506001600160a01b0316608052620003a3565b600580546001600160a01b038381166001600160a01b0319831681179093556040519116919082907f8be0079c531659141344cd1fd0a4f28419497f9722a3daafe3b4186f6b6457e090600090a35050565b60006001600160a01b0382165b92915050565b6200015b816200013d565b81146200016757600080fd5b50565b80516200014a8162000150565b6000602082840312156200018e576200018e600080fd5b60006200019c84846200016a565b949350505050565b634e487b7160e01b600052604160045260246000fd5b634e487b7160e01b600052602260045260246000fd5b600281046001821680620001e557607f821691505b602082108103620001fa57620001fa620001ba565b50919050565b60006200014a6200020e8381565b90565b6200021c8362000200565b815460001960089490940293841b1916921b91909117905550565b60006200024681848462000211565b505050565b818110156200026a576200026160008262000237565b6001016200024b565b5050565b601f82111562000246576000818152602090206020601f85010481016020851015620002975750805b620002ab6020601f8601048301826200024b565b5050505050565b81516001600160401b03811115620002ce57620002ce620001a4565b620002da8254620001d0565b620002e78282856200026e565b6020601f8311600181146200031e5760008415620003055750858201515b600019600886021c19811660028602178655506200037a565b600085815260208120601f198616915b828110156200035057888501518255602094850194600190920191016200032e565b868310156200036d5784890151600019601f89166008021c191682555b6001600288020188555050505b505050505050565b6200038d816200013d565b82525050565b602081016200014a828462000382565b608051610e43620003c66000396000818161029301526104570152610e436000f3fe608060405234801561001057600080fd5b50600436106101515760003560e01c8063715018a6116100cd578063a9059cbb11610081578063dd62ed3e11610066578063dd62ed3e146102b5578063f2fde38b146102ee578063fbfa77cf1461030157600080fd5b8063a9059cbb1461027b578063c45a01551461028e57600080fd5b80638da5cb5b116100b25780638da5cb5b1461024657806395d89b41146102605780639dc29fac1461026857600080fd5b8063715018a61461022b57806379cc67901461023357600080fd5b8063313ce5671161012457806342966c681161010957806342966c68146101dc5780636817031b146101ef57806370a082311461020257600080fd5b8063313ce567146101b857806340c10f19146101c757600080fd5b806306fdde0314610156578063095ea7b31461017457806318160ddd1461019457806323b872dd146101a5575b600080fd5b61015e610314565b60405161016b9190610b00565b60405180910390f35b610187610182366004610b59565b6103a6565b60405161016b9190610ba0565b6002545b60405161016b9190610bb4565b6101876101b3366004610bc2565b6103c0565b601260405161016b9190610c1b565b6101da6101d5366004610b59565b6103e4565b005b6101da6101ea366004610c29565b61043f565b6101da6101fd366004610c52565b61044c565b610198610210366004610c52565b6001600160a01b031660009081526020819052604090205490565b6101da6104e8565b6101da610241366004610b59565b6104fc565b6005546001600160a01b03165b60405161016b9190610c7c565b61015e610511565b6101da610276366004610b59565b610520565b610187610289366004610b59565b610564565b6102537f000000000000000000000000000000000000000000000000000000000000000081565b6101986102c3366004610c8a565b6001600160a01b03918216600090815260016020908152604080832093909416825291909152205490565b6101da6102fc366004610c52565b610572565b600654610253906001600160a01b031681565b60606003805461032390610cec565b80601f016020809104026020016040519081016040528092919081815260200182805461034f90610cec565b801561039c5780601f106103715761010080835404028352916020019161039c565b820191906000526020600020905b81548152906001019060200180831161037f57829003601f168201915b5050505050905090565b6000336103b48185856105c6565b60019150505b92915050565b6000336103ce8582856105d8565b6103d985858561067a565b506001949350505050565b6006546001600160a01b03163314610431576040517f08c379a000000000000000000000000000000000000000000000000000000000815260040161042890610d4f565b60405180910390fd5b61043b828261070b565b5050565b610449338261075a565b50565b336001600160a01b037f000000000000000000000000000000000000000000000000000000000000000016146104ae576040517f08c379a000000000000000000000000000000000000000000000000000000000815260040161042890610d93565b600680547fffffffffffffffffffffffff0000000000000000000000000000000000000000166001600160a01b0392909216919091179055565b6104f06107a9565b6104fa60006107ef565b565b6105078233836105d8565b61043b828261075a565b60606004805461032390610cec565b6006546001600160a01b03163314610507576040517f08c379a000000000000000000000000000000000000000000000000000000000815260040161042890610d4f565b6000336103b481858561067a565b61057a6107a9565b6001600160a01b0381166105bd5760006040517f1e4fbdf70000000000000000000000000000000000000000000000000000000081526004016104289190610c7c565b610449816107ef565b6105d38383836001610859565b505050565b6001600160a01b038381166000908152600160209081526040808320938616835292905220547fffffffffffffffffffffffffffffffffffffffffffffffffffffffffffffffff81146106745781811015610665578281836040517ffb8f41b200000000000000000000000000000000000000000000000000000000815260040161042893929190610da3565b61067484848484036000610859565b50505050565b6001600160a01b0383166106bd5760006040517f96c6fd1e0000000000000000000000000000000000000000000000000000000081526004016104289190610c7c565b6001600160a01b0382166107005760006040517fec442f050000000000000000000000000000000000000000000000000000000081526004016104289190610c7c565b6105d383838361095e565b6001600160a01b03821661074e5760006040517fec442f050000000000000000000000000000000000000000000000000000000081526004016104289190610c7c565b61043b6000838361095e565b6001600160a01b03821661079d5760006040517f96c6fd1e0000000000000000000000000000000000000000000000000000000081526004016104289190610c7c565b61043b8260008361095e565b6005546001600160a01b031633146104fa57336040517f118cdaa70000000000000000000000000000000000000000000000000000000081526004016104289190610c7c565b600580546001600160a01b038381167fffffffffffffffffffffffff0000000000000000000000000000000000000000831681179093556040519116919082907f8be0079c531659141344cd1fd0a4f28419497f9722a3daafe3b4186f6b6457e090600090a35050565b6001600160a01b03841661089c5760006040517fe602df050000000000000000000000000000000000000000000000000000000081526004016104289190610c7c565b6001600160a01b0383166108df5760006040517f94280d620000000000000000000000000000000000000000000000000000000081526004016104289190610c7c565b6001600160a01b038085166000908152600160209081526040808320938716835292905220829055801561067457826001600160a01b0316846001600160a01b03167f8c5be1e5ebec7d5bd14f71427d1e84f3dd0314c0f7b2291e5b200ac8c7c3b925846040516109509190610bb4565b60405180910390a350505050565b6001600160a01b03831661098957806002600082825461097e9190610dfa565b90915550610a019050565b6001600160a01b038316600090815260208190526040902054818110156109e2578381836040517fe450d38c00000000000000000000000000000000000000000000000000000000815260040161042893929190610da3565b6001600160a01b03841660009081526020819052604090209082900390555b6001600160a01b038216610a1d57600280548290039055610a3c565b6001600160a01b03821660009081526020819052604090208054820190555b816001600160a01b0316836001600160a01b03167fddf252ad1be2c89b69c2b068fc378daa952ba7f163c4a11628f55a4df523b3ef83604051610a7f9190610bb4565b60405180910390a3505050565b60005b83811015610aa7578181015183820152602001610a8f565b50506000910152565b6000610aba825190565b808452602084019350610ad1818560208601610a8c565b601f017fffffffffffffffffffffffffffffffffffffffffffffffffffffffffffffffe0169290920192915050565b60208082528101610b118184610ab0565b9392505050565b60006001600160a01b0382166103ba565b610b3281610b18565b811461044957600080fd5b80356103ba81610b29565b80610b32565b80356103ba81610b48565b60008060408385031215610b6f57610b6f600080fd5b6000610b7b8585610b3d565b9250506020610b8c85828601610b4e565b9150509250929050565b8015155b82525050565b602081016103ba8284610b96565b80610b9a565b602081016103ba8284610bae565b600080600060608486031215610bda57610bda600080fd5b6000610be68686610b3d565b9350506020610bf786828701610b3d565b9250506040610c0886828701610b4e565b9150509250925092565b60ff8116610b9a565b602081016103ba8284610c12565b600060208284031215610c3e57610c3e600080fd5b6000610c4a8484610b4e565b949350505050565b600060208284031215610c6757610c67600080fd5b6000610c4a8484610b3d565b610b9a81610b18565b602081016103ba8284610c73565b60008060408385031215610ca057610ca0600080fd5b6000610cac8585610b3d565b9250506020610b8c85828601610b3d565b7f4e487b7100000000000000000000000000000000000000000000000000000000600052602260045260246000fd5b600281046001821680610d0057607f821691505b602082108103610d1257610d12610cbd565b50919050565b600a81526000602082017f6f6e6c79205661756c7400000000000000000000000000000000000000000000815291505b5060200190565b602080825281016103ba81610d18565b600c81526000602082017f6f6e6c7920666163746f7279000000000000000000000000000000000000000081529150610d48565b602080825281016103ba81610d5f565b60608101610db18286610c73565b610dbe6020830185610bae565b610c4a6040830184610bae565b7f4e487b7100000000000000000000000000000000000000000000000000000000600052601160045260246000fd5b808201808211156103ba576103ba610dcb56fea2646970667358221220cb077f184991bcb866ab630ddec7c4a138e137f81c50c327556a5d084e86e4ca64736f6c63430008140033",
  "linkReferences": {},
  "deployedLinkReferences": {}
}