{
  "_format": "hh-sol-artifact-1",
  "contractName": "ScalarMarketFactory",
  "sourceName": "contracts/ScalarMarketFactory.sol",
  "abi": [
    {
      "inputs": [],
      "stateMutability": "nonpayable",
      "type": "constructor"
    },
    {
      "inputs": [],
      "name": "ERC1167FailedCreateClone",
      "type": "error"
    },
    {
      "inputs": [
        {
          "internalType": "address",
          "name": "owner",
          "type": "address"
        }
      ],
      "name": "OwnableInvalidOwner",
      "type": "error"
    },
    {
      "inputs": [
        {
          "internalType": "address",
          "name": "account",
          "type": "address"
        }
      ],
      "name": "OwnableUnauthorizedAccount",
      "type": "error"
    },
    {
      "anonymous": false,
      "inputs": [
        {
          "indexed": false,
          "internalType": "address",
          "name": "scalarMarketVaultClone",
          "type": "address"
        },
        {
          "indexed": false,
          "internalType": "address",
          "name": "longTokenClone",
          "type": "address"
        },
        {
          "indexed": false,
          "internalType": "address",
          "name": "shortTokenClone",
          "type": "address"
        }
      ],
      "name": "MarketCreated",
      "type": "event"
    },
    {
      "anonymous": false,
      "inputs": [
        {
          "indexed": true,
          "internalType": "address",
          "name": "previousOwner",
          "type": "address"
        },
        {
          "indexed": true,
          "internalType": "address",
          "name": "newOwner",
          "type": "address"
        }
      ],
      "name": "OwnershipTransferred",
      "type": "event"
    },
    {
      "inputs": [
        {
          "internalType": "uint256",
          "name": "startRange",
          "type": "uint256"
        },
        {
          "internalType": "uint256",
          "name": "endRange",
          "type": "uint256"
        }
      ],
      "name": "createNewMarket",
      "outputs": [],
      "stateMutability": "nonpayable",
      "type": "function"
    },
    {
      "inputs": [
        {
          "internalType": "address",
          "name": "",
          "type": "address"
        },
        {
          "internalType": "address",
          "name": "",
          "type": "address"
        }
      ],
      "name": "getVault",
      "outputs": [
        {
          "internalType": "address",
          "name": "",
          "type": "address"
        }
      ],
      "stateMutability": "view",
      "type": "function"
    },
    {
      "inputs": [],
      "name": "longToken",
      "outputs": [
        {
          "internalType": "address",
          "name": "",
          "type": "address"
        }
      ],
      "stateMutability": "view",
      "type": "function"
    },
    {
      "inputs": [],
      "name": "owner",
      "outputs": [
        {
          "internalType": "address",
          "name": "",
          "type": "address"
        }
      ],
      "stateMutability": "view",
      "type": "function"
    },
    {
      "inputs": [],
      "name": "renounceOwnership",
      "outputs": [],
      "stateMutability": "nonpayable",
      "type": "function"
    },
    {
      "inputs": [],
      "name": "scalarMarketVault",
      "outputs": [
        {
          "internalType": "address",
          "name": "",
          "type": "address"
        }
      ],
      "stateMutability": "view",
      "type": "function"
    },
    {
      "inputs": [
        {
          "internalType": "address",
          "name": "_scalarMarketVault",
          "type": "address"
        },
        {
          "internalType": "address",
          "name": "_longToken",
          "type": "address"
        },
        {
          "internalType": "address",
          "name": "_shortToken",
          "type": "address"
        }
      ],
      "name": "setTemplates",
      "outputs": [],
      "stateMutability": "nonpayable",
      "type": "function"
    },
    {
      "inputs": [],
      "name": "shortToken",
      "outputs": [
        {
          "internalType": "address",
          "name": "",
          "type": "address"
        }
      ],
      "stateMutability": "view",
      "type": "function"
    },
    {
      "inputs": [
        {
          "internalType": "address",
          "name": "newOwner",
          "type": "address"
        }
      ],
      "name": "transferOwnership",
      "outputs": [],
      "stateMutability": "nonpayable",
      "type": "function"
    }
  ],
  "bytecode": "0x608060405234801561001057600080fd5b50338061003c576000604051631e4fbdf760e01b815260040161003391906100bd565b60405180910390fd5b6100458161004b565b506100cb565b600080546001600160a01b038381166001600160a01b0319831681178455604051919092169283917f8be0079c531659141344cd1fd0a4f28419497f9722a3daafe3b4186f6b6457e09190a35050565b60006001600160a01b0382165b92915050565b6100b78161009b565b82525050565b602081016100a882846100ae565b61092a806100da6000396000f3fe608060405234801561001057600080fd5b50600436106100a35760003560e01c8063b66333cd11610076578063d92208241161005b578063d92208241461017a578063e3065da71461018d578063f2fde38b146101ad57600080fd5b8063b66333cd14610119578063bbd7edc51461013957600080fd5b806320ab14f3146100a85780634ad02ecc146100bd578063715018a6146100f35780638da5cb5b146100fb575b600080fd5b6100bb6100b6366004610742565b6101c0565b005b6002546100dd9073ffffffffffffffffffffffffffffffffffffffff1681565b6040516100ea91906107ac565b60405180910390f35b6100bb61045b565b60005473ffffffffffffffffffffffffffffffffffffffff166100dd565b6003546100dd9073ffffffffffffffffffffffffffffffffffffffff1681565b6100dd6101473660046107ce565b600160209081526000928352604080842090915290825290205473ffffffffffffffffffffffffffffffffffffffff1681565b6100bb610188366004610801565b61046f565b6004546100dd9073ffffffffffffffffffffffffffffffffffffffff1681565b6100bb6101bb366004610851565b6104db565b60006101ca610548565b90506000806101d7610572565b6040517f6817031b000000000000000000000000000000000000000000000000000000008152919350915073ffffffffffffffffffffffffffffffffffffffff831690636817031b9061022e9086906004016107ac565b600060405180830381600087803b15801561024857600080fd5b505af115801561025c573d6000803e3d6000fd5b50506040517f6817031b00000000000000000000000000000000000000000000000000000000815273ffffffffffffffffffffffffffffffffffffffff84169250636817031b91506102b29086906004016107ac565b600060405180830381600087803b1580156102cc57600080fd5b505af11580156102e0573d6000803e3d6000fd5b50506040517f57fb25cc00000000000000000000000000000000000000000000000000000000815273ffffffffffffffffffffffffffffffffffffffff861692506357fb25cc915061033e90859085908a908a903390600401610880565b600060405180830381600087803b15801561035857600080fd5b505af115801561036c573d6000803e3d6000fd5b505050506000808273ffffffffffffffffffffffffffffffffffffffff168473ffffffffffffffffffffffffffffffffffffffff16106103ad5782846103b0565b83835b73ffffffffffffffffffffffffffffffffffffffff828116600090815260016020908152604080832085851684529091529081902080547fffffffffffffffffffffffff000000000000000000000000000000000000000016928a16929092179091555191935091507fe63e6130091e2155004c4b5ac35e8fb9be704d6637ff3068a8f710ba36c9f41a9061044a908790879087906108cc565b60405180910390a150505050505050565b6104636105c4565b61046d6000610617565b565b6104776105c4565b6002805473ffffffffffffffffffffffffffffffffffffffff9485167fffffffffffffffffffffffff000000000000000000000000000000000000000091821617909155600380549385169382169390931790925560048054919093169116179055565b6104e36105c4565b73ffffffffffffffffffffffffffffffffffffffff811661053c5760006040517f1e4fbdf700000000000000000000000000000000000000000000000000000000815260040161053391906107ac565b60405180910390fd5b61054581610617565b50565b60025460009061056d9073ffffffffffffffffffffffffffffffffffffffff1661068c565b905090565b60035460009081906105999073ffffffffffffffffffffffffffffffffffffffff1661068c565b6004549092506105be9073ffffffffffffffffffffffffffffffffffffffff1661068c565b90509091565b60005473ffffffffffffffffffffffffffffffffffffffff16331461046d57336040517f118cdaa700000000000000000000000000000000000000000000000000000000815260040161053391906107ac565b6000805473ffffffffffffffffffffffffffffffffffffffff8381167fffffffffffffffffffffffff0000000000000000000000000000000000000000831681178455604051919092169283917f8be0079c531659141344cd1fd0a4f28419497f9722a3daafe3b4186f6b6457e09190a35050565b6000763d602d80600a3d3981f3363d3d373d3d3d363d730000008260601b60e81c176000526e5af43d82803e903d91602b57fd5bf38260781b17602052603760096000f0905073ffffffffffffffffffffffffffffffffffffffff811661071f576040517fc2f868f400000000000000000000000000000000000000000000000000000000815260040160405180910390fd5b919050565b805b811461054557600080fd5b803561073c81610724565b92915050565b6000806040838503121561075857610758600080fd5b60006107648585610731565b925050602061077585828601610731565b9150509250929050565b600073ffffffffffffffffffffffffffffffffffffffff821661073c565b6107a68161077f565b82525050565b6020810161073c828461079d565b6107268161077f565b803561073c816107ba565b600080604083850312156107e4576107e4600080fd5b60006107f085856107c3565b9250506020610775858286016107c3565b60008060006060848603121561081957610819600080fd5b600061082586866107c3565b9350506020610836868287016107c3565b9250506040610847868287016107c3565b9150509250925092565b60006020828403121561086657610866600080fd5b600061087284846107c3565b949350505050565b806107a6565b60a0810161088e828861079d565b61089b602083018761079d565b6108a8604083018661087a565b6108b5606083018561087a565b6108c2608083018461079d565b9695505050505050565b606081016108da828661079d565b6108e7602083018561079d565b610872604083018461079d56fea2646970667358221220abc14fff265deb3ed7b0facb529603e87942fff623d9abc02b77c9af8dc264de64736f6c63430008140033",
  "linkReferences": {},
  "deployedLinkReferences": {}
}