{
  "_format": "hh-sol-artifact-1",
  "contractName": "ScalarMarketFactory",
  "sourceName": "contracts/ScalarMarketFactory.sol",
  "abi": [
    {
      "inputs": [],
      "stateMutability": "nonpayable",
      "type": "constructor"
    },
    {
      "inputs": [],
      "name": "ERC1167FailedCreateClone",
      "type": "error"
    },
    {
      "inputs": [
        {
          "internalType": "address",
          "name": "owner",
          "type": "address"
        }
      ],
      "name": "OwnableInvalidOwner",
      "type": "error"
    },
    {
      "inputs": [
        {
          "internalType": "address",
          "name": "account",
          "type": "address"
        }
      ],
      "name": "OwnableUnauthorizedAccount",
      "type": "error"
    },
    {
      "anonymous": false,
      "inputs": [
        {
          "indexed": false,
          "internalType": "address",
          "name": "scalarMarketVaultClone",
          "type": "address"
        },
        {
          "indexed": false,
          "internalType": "address",
          "name": "longTokenClone",
          "type": "address"
        },
        {
          "indexed": false,
          "internalType": "address",
          "name": "shortTokenClone",
          "type": "address"
        },
        {
          "indexed": false,
          "internalType": "uint256",
          "name": "startRange",
          "type": "uint256"
        },
        {
          "indexed": false,
          "internalType": "uint256",
          "name": "endRange",
          "type": "uint256"
        },
        {
          "indexed": false,
          "internalType": "uint256",
          "name": "expiry",
          "type": "uint256"
        },
        {
          "indexed": false,
          "internalType": "address",
          "name": "creator",
          "type": "address"
        }
      ],
      "name": "MarketCreated",
      "type": "event"
    },
    {
      "anonymous": false,
      "inputs": [
        {
          "indexed": true,
          "internalType": "address",
          "name": "previousOwner",
          "type": "address"
        },
        {
          "indexed": true,
          "internalType": "address",
          "name": "newOwner",
          "type": "address"
        }
      ],
      "name": "OwnershipTransferred",
      "type": "event"
    },
    {
      "inputs": [
        {
          "internalType": "uint256",
          "name": "startRange",
          "type": "uint256"
        },
        {
          "internalType": "uint256",
          "name": "endRange",
          "type": "uint256"
        },
        {
          "internalType": "uint256",
          "name": "expiry",
          "type": "uint256"
        }
      ],
      "name": "createNewMarket",
      "outputs": [],
      "stateMutability": "nonpayable",
      "type": "function"
    },
    {
      "inputs": [
        {
          "internalType": "address",
          "name": "",
          "type": "address"
        },
        {
          "internalType": "address",
          "name": "",
          "type": "address"
        }
      ],
      "name": "getVault",
      "outputs": [
        {
          "internalType": "address",
          "name": "",
          "type": "address"
        }
      ],
      "stateMutability": "view",
      "type": "function"
    },
    {
      "inputs": [],
      "name": "longToken",
      "outputs": [
        {
          "internalType": "address",
          "name": "",
          "type": "address"
        }
      ],
      "stateMutability": "view",
      "type": "function"
    },
    {
      "inputs": [],
      "name": "owner",
      "outputs": [
        {
          "internalType": "address",
          "name": "",
          "type": "address"
        }
      ],
      "stateMutability": "view",
      "type": "function"
    },
    {
      "inputs": [],
      "name": "renounceOwnership",
      "outputs": [],
      "stateMutability": "nonpayable",
      "type": "function"
    },
    {
      "inputs": [],
      "name": "scalarMarketVault",
      "outputs": [
        {
          "internalType": "address",
          "name": "",
          "type": "address"
        }
      ],
      "stateMutability": "view",
      "type": "function"
    },
    {
      "inputs": [
        {
          "internalType": "address",
          "name": "_scalarMarketVault",
          "type": "address"
        },
        {
          "internalType": "address",
          "name": "_longToken",
          "type": "address"
        },
        {
          "internalType": "address",
          "name": "_shortToken",
          "type": "address"
        }
      ],
      "name": "setTemplates",
      "outputs": [],
      "stateMutability": "nonpayable",
      "type": "function"
    },
    {
      "inputs": [],
      "name": "shortToken",
      "outputs": [
        {
          "internalType": "address",
          "name": "",
          "type": "address"
        }
      ],
      "stateMutability": "view",
      "type": "function"
    },
    {
      "inputs": [
        {
          "internalType": "address",
          "name": "newOwner",
          "type": "address"
        }
      ],
      "name": "transferOwnership",
      "outputs": [],
      "stateMutability": "nonpayable",
      "type": "function"
    }
  ],
  "bytecode": "0x608060405234801561001057600080fd5b50338061003c576000604051631e4fbdf760e01b815260040161003391906100bd565b60405180910390fd5b6100458161004b565b506100cb565b600080546001600160a01b038381166001600160a01b0319831681178455604051919092169283917f8be0079c531659141344cd1fd0a4f28419497f9722a3daafe3b4186f6b6457e09190a35050565b60006001600160a01b0382165b92915050565b6100b78161009b565b82525050565b602081016100a882846100ae565b610b7e806100da6000396000f3fe608060405234801561001057600080fd5b50600436106100a35760003560e01c8063b66333cd11610076578063d92208241161005b578063d92208241461017a578063e3065da71461018d578063f2fde38b146101ad57600080fd5b8063b66333cd14610119578063bbd7edc51461013957600080fd5b8063060a5e4c146100a85780634ad02ecc146100bd578063715018a6146100f35780638da5cb5b146100fb575b600080fd5b6100bb6100b6366004610831565b6101c0565b005b6002546100dd9073ffffffffffffffffffffffffffffffffffffffff1681565b6040516100ea91906108ae565b60405180910390f35b6100bb610553565b60005473ffffffffffffffffffffffffffffffffffffffff166100dd565b6003546100dd9073ffffffffffffffffffffffffffffffffffffffff1681565b6100dd6101473660046108d0565b600160209081526000928352604080842090915290825290205473ffffffffffffffffffffffffffffffffffffffff1681565b6100bb61018836600461090d565b610567565b6004546100dd9073ffffffffffffffffffffffffffffffffffffffff1681565b6100bb6101bb366004610953565b6105d3565b60006101d4670de0b6b3a7640000856109ab565b11610214576040517f08c379a000000000000000000000000000000000000000000000000000000000815260040161020b906109f6565b60405180910390fd5b6000610228670de0b6b3a7640000846109ab565b1161025f576040517f08c379a000000000000000000000000000000000000000000000000000000000815260040161020b90610a3a565b438111610298576040517f08c379a000000000000000000000000000000000000000000000000000000000815260040161020b90610a7e565b60006102a2610637565b90506000806102af610661565b6040517f6817031b000000000000000000000000000000000000000000000000000000008152919350915073ffffffffffffffffffffffffffffffffffffffff831690636817031b906103069086906004016108ae565b600060405180830381600087803b15801561032057600080fd5b505af1158015610334573d6000803e3d6000fd5b50506040517f6817031b00000000000000000000000000000000000000000000000000000000815273ffffffffffffffffffffffffffffffffffffffff84169250636817031b915061038a9086906004016108ae565b600060405180830381600087803b1580156103a457600080fd5b505af11580156103b8573d6000803e3d6000fd5b50506040517f57fb25cc00000000000000000000000000000000000000000000000000000000815273ffffffffffffffffffffffffffffffffffffffff861692506357fb25cc915061041690859085908b908b903390600401610a94565b600060405180830381600087803b15801561043057600080fd5b505af1158015610444573d6000803e3d6000fd5b505050506000808273ffffffffffffffffffffffffffffffffffffffff168473ffffffffffffffffffffffffffffffffffffffff1610610485578284610488565b83835b73ffffffffffffffffffffffffffffffffffffffff8083166000818152600160208181526040808420868816855282528084208054968e167fffffffffffffffffffffffff00000000000000000000000000000000000000009788168117909155928252808420948452939052908290208054909316179091555191935091507f8ebf35e4ab57be3bd6f2a98a2f75c4aaa58a5615a7f6454df681bdbcdd82dc3290610541908790879087908d908d908d903390610ae0565b60405180910390a15050505050505050565b61055b6106b3565b6105656000610706565b565b61056f6106b3565b6002805473ffffffffffffffffffffffffffffffffffffffff9485167fffffffffffffffffffffffff000000000000000000000000000000000000000091821617909155600380549385169382169390931790925560048054919093169116179055565b6105db6106b3565b73ffffffffffffffffffffffffffffffffffffffff811661062b5760006040517f1e4fbdf700000000000000000000000000000000000000000000000000000000815260040161020b91906108ae565b61063481610706565b50565b60025460009061065c9073ffffffffffffffffffffffffffffffffffffffff1661077b565b905090565b60035460009081906106889073ffffffffffffffffffffffffffffffffffffffff1661077b565b6004549092506106ad9073ffffffffffffffffffffffffffffffffffffffff1661077b565b90509091565b60005473ffffffffffffffffffffffffffffffffffffffff16331461056557336040517f118cdaa700000000000000000000000000000000000000000000000000000000815260040161020b91906108ae565b6000805473ffffffffffffffffffffffffffffffffffffffff8381167fffffffffffffffffffffffff0000000000000000000000000000000000000000831681178455604051919092169283917f8be0079c531659141344cd1fd0a4f28419497f9722a3daafe3b4186f6b6457e09190a35050565b6000763d602d80600a3d3981f3363d3d373d3d3d363d730000008260601b60e81c176000526e5af43d82803e903d91602b57fd5bf38260781b17602052603760096000f0905073ffffffffffffffffffffffffffffffffffffffff811661080e576040517fc2f868f400000000000000000000000000000000000000000000000000000000815260040160405180910390fd5b919050565b805b811461063457600080fd5b803561082b81610813565b92915050565b60008060006060848603121561084957610849600080fd5b60006108558686610820565b935050602061086686828701610820565b925050604061087786828701610820565b9150509250925092565b600073ffffffffffffffffffffffffffffffffffffffff821661082b565b6108a881610881565b82525050565b6020810161082b828461089f565b61081581610881565b803561082b816108bc565b600080604083850312156108e6576108e6600080fd5b60006108f285856108c5565b9250506020610903858286016108c5565b9150509250929050565b60008060006060848603121561092557610925600080fd5b600061093186866108c5565b9350506020610942868287016108c5565b9250506040610877868287016108c5565b60006020828403121561096857610968600080fd5b600061097484846108c5565b949350505050565b7f4e487b7100000000000000000000000000000000000000000000000000000000600052601260045260246000fd5b6000826109ba576109ba61097c565b500490565b601581526000602082017f57726f6e67205363616c652072616e67654f70656e0000000000000000000000815291505b5060200190565b6020808252810161082b816109bf565b601681526000602082017f57726f6e67205363616c652072616e6765436c6f736500000000000000000000815291506109ef565b6020808252810161082b81610a06565b601c81526000602082017f457870697279206d75737420626520696e207468652066757475726500000000815291506109ef565b6020808252810161082b81610a4a565b806108a8565b60a08101610aa2828861089f565b610aaf602083018761089f565b610abc6040830186610a8e565b610ac96060830185610a8e565b610ad6608083018461089f565b9695505050505050565b60e08101610aee828a61089f565b610afb602083018961089f565b610b08604083018861089f565b610b156060830187610a8e565b610b226080830186610a8e565b610b2f60a0830185610a8e565b610b3c60c083018461089f565b9897505050505050505056fea26469706673582212206dac90ae588731ae1f5dfcfe334bcef9efe0c06765156fd0203ebc63c80862ad64736f6c63430008140033",
  "linkReferences": {},
  "deployedLinkReferences": {}
}